{
  "_format": "hh-sol-artifact-1",
  "contractName": "Vaccination",
  "sourceName": "contracts/Vaccination.sol",
  "abi": [
    {
      "inputs": [],
      "stateMutability": "nonpayable",
      "type": "constructor"
    },
    {
      "anonymous": false,
      "inputs": [
        {
          "indexed": true,
          "internalType": "address",
          "name": "owner",
          "type": "address"
        },
        {
          "indexed": true,
          "internalType": "address",
          "name": "approved",
          "type": "address"
        },
        {
          "indexed": true,
          "internalType": "uint256",
          "name": "tokenId",
          "type": "uint256"
        }
      ],
      "name": "Approval",
      "type": "event"
    },
    {
      "anonymous": false,
      "inputs": [
        {
          "indexed": true,
          "internalType": "address",
          "name": "owner",
          "type": "address"
        },
        {
          "indexed": true,
          "internalType": "address",
          "name": "operator",
          "type": "address"
        },
        {
          "indexed": false,
          "internalType": "bool",
          "name": "approved",
          "type": "bool"
        }
      ],
      "name": "ApprovalForAll",
      "type": "event"
    },
    {
      "anonymous": false,
      "inputs": [
        {
          "indexed": false,
          "internalType": "uint256",
          "name": "gas",
          "type": "uint256"
        }
      ],
      "name": "Log",
      "type": "event"
    },
    {
      "anonymous": false,
      "inputs": [
        {
          "indexed": true,
          "internalType": "address",
          "name": "previousOwner",
          "type": "address"
        },
        {
          "indexed": true,
          "internalType": "address",
          "name": "newOwner",
          "type": "address"
        }
      ],
      "name": "OwnershipTransferred",
      "type": "event"
    },
    {
      "anonymous": false,
      "inputs": [
        {
          "indexed": true,
          "internalType": "address",
          "name": "from",
          "type": "address"
        },
        {
          "indexed": true,
          "internalType": "address",
          "name": "to",
          "type": "address"
        },
        {
          "indexed": true,
          "internalType": "uint256",
          "name": "tokenId",
          "type": "uint256"
        }
      ],
      "name": "Transfer",
      "type": "event"
    },
    {
      "inputs": [],
      "name": "MAX_SUPPLY",
      "outputs": [
        {
          "internalType": "uint256",
          "name": "",
          "type": "uint256"
        }
      ],
      "stateMutability": "view",
      "type": "function"
    },
    {
      "inputs": [],
      "name": "PRICE",
      "outputs": [
        {
          "internalType": "uint256",
          "name": "",
          "type": "uint256"
        }
      ],
      "stateMutability": "view",
      "type": "function"
    },
    {
      "inputs": [],
      "name": "ROYALTY",
      "outputs": [
        {
          "internalType": "uint256",
          "name": "",
          "type": "uint256"
        }
      ],
      "stateMutability": "view",
      "type": "function"
    },
    {
      "inputs": [
        {
          "internalType": "address",
          "name": "",
          "type": "address"
        }
      ],
      "name": "adminMembers",
      "outputs": [
        {
          "internalType": "bool",
          "name": "",
          "type": "bool"
        }
      ],
      "stateMutability": "view",
      "type": "function"
    },
    {
      "inputs": [
        {
          "internalType": "uint256",
          "name": "",
          "type": "uint256"
        }
      ],
      "name": "alreadyMinted",
      "outputs": [
        {
          "internalType": "bool",
          "name": "",
          "type": "bool"
        }
      ],
      "stateMutability": "view",
      "type": "function"
    },
    {
      "inputs": [
        {
          "internalType": "address",
          "name": "to",
          "type": "address"
        },
        {
          "internalType": "uint256",
          "name": "tokenId",
          "type": "uint256"
        }
      ],
      "name": "approve",
      "outputs": [],
      "stateMutability": "nonpayable",
      "type": "function"
    },
    {
      "inputs": [
        {
          "internalType": "address",
          "name": "owner",
          "type": "address"
        }
      ],
      "name": "balanceOf",
      "outputs": [
        {
          "internalType": "uint256",
          "name": "",
          "type": "uint256"
        }
      ],
      "stateMutability": "view",
      "type": "function"
    },
    {
      "inputs": [],
      "name": "baseExtension",
      "outputs": [
        {
          "internalType": "string",
          "name": "",
          "type": "string"
        }
      ],
      "stateMutability": "view",
      "type": "function"
    },
    {
      "inputs": [],
      "name": "baseUri",
      "outputs": [
        {
          "internalType": "string",
          "name": "",
          "type": "string"
        }
      ],
      "stateMutability": "view",
      "type": "function"
    },
    {
      "inputs": [
        {
          "internalType": "uint256",
          "name": "tokenId",
          "type": "uint256"
        }
      ],
      "name": "burn",
      "outputs": [],
      "stateMutability": "nonpayable",
      "type": "function"
    },
    {
      "inputs": [
        {
          "internalType": "uint256",
          "name": "tokenId",
          "type": "uint256"
        }
      ],
      "name": "getApproved",
      "outputs": [
        {
          "internalType": "address",
          "name": "",
          "type": "address"
        }
      ],
      "stateMutability": "view",
      "type": "function"
    },
    {
      "inputs": [],
      "name": "getBalance",
      "outputs": [
        {
          "internalType": "uint256",
          "name": "",
          "type": "uint256"
        }
      ],
      "stateMutability": "view",
      "type": "function"
    },
    {
      "inputs": [
        {
          "internalType": "address",
          "name": "owner",
          "type": "address"
        },
        {
          "internalType": "address",
          "name": "operator",
          "type": "address"
        }
      ],
      "name": "isApprovedForAll",
      "outputs": [
        {
          "internalType": "bool",
          "name": "",
          "type": "bool"
        }
      ],
      "stateMutability": "view",
      "type": "function"
    },
    {
      "inputs": [],
      "name": "name",
      "outputs": [
        {
          "internalType": "string",
          "name": "",
          "type": "string"
        }
      ],
      "stateMutability": "view",
      "type": "function"
    },
    {
      "inputs": [],
      "name": "owner",
      "outputs": [
        {
          "internalType": "address",
          "name": "",
          "type": "address"
        }
      ],
      "stateMutability": "view",
      "type": "function"
    },
    {
      "inputs": [
        {
          "internalType": "uint256",
          "name": "tokenId",
          "type": "uint256"
        }
      ],
      "name": "ownerOf",
      "outputs": [
        {
          "internalType": "address",
          "name": "",
          "type": "address"
        }
      ],
      "stateMutability": "view",
      "type": "function"
    },
    {
      "inputs": [],
      "name": "renounceOwnership",
      "outputs": [],
      "stateMutability": "nonpayable",
      "type": "function"
    },
    {
      "inputs": [
        {
          "internalType": "address",
          "name": "to",
          "type": "address"
        },
        {
          "internalType": "uint256",
          "name": "tokenId",
          "type": "uint256"
        }
      ],
      "name": "safeMint",
      "outputs": [],
      "stateMutability": "payable",
      "type": "function"
    },
    {
      "inputs": [
        {
          "internalType": "address",
          "name": "from",
          "type": "address"
        },
        {
          "internalType": "address",
          "name": "to",
          "type": "address"
        },
        {
          "internalType": "uint256",
          "name": "tokenId",
          "type": "uint256"
        }
      ],
      "name": "safeTransferFrom",
      "outputs": [],
      "stateMutability": "nonpayable",
      "type": "function"
    },
    {
      "inputs": [
        {
          "internalType": "address",
          "name": "from",
          "type": "address"
        },
        {
          "internalType": "address",
          "name": "to",
          "type": "address"
        },
        {
          "internalType": "uint256",
          "name": "tokenId",
          "type": "uint256"
        },
        {
          "internalType": "bytes",
          "name": "data",
          "type": "bytes"
        }
      ],
      "name": "safeTransferFrom",
      "outputs": [],
      "stateMutability": "nonpayable",
      "type": "function"
    },
    {
      "inputs": [
        {
          "internalType": "address",
          "name": "operator",
          "type": "address"
        },
        {
          "internalType": "bool",
          "name": "approved",
          "type": "bool"
        }
      ],
      "name": "setApprovalForAll",
      "outputs": [],
      "stateMutability": "nonpayable",
      "type": "function"
    },
    {
      "inputs": [
        {
          "internalType": "string",
          "name": "_baseTokenURI",
          "type": "string"
        }
      ],
      "name": "setBaseUri",
      "outputs": [],
      "stateMutability": "nonpayable",
      "type": "function"
    },
    {
      "inputs": [
        {
          "internalType": "bytes4",
          "name": "interfaceId",
          "type": "bytes4"
        }
      ],
      "name": "supportsInterface",
      "outputs": [
        {
          "internalType": "bool",
          "name": "",
          "type": "bool"
        }
      ],
      "stateMutability": "view",
      "type": "function"
    },
    {
      "inputs": [],
      "name": "symbol",
      "outputs": [
        {
          "internalType": "string",
          "name": "",
          "type": "string"
        }
      ],
      "stateMutability": "view",
      "type": "function"
    },
    {
      "inputs": [
        {
          "internalType": "uint256",
          "name": "index",
          "type": "uint256"
        }
      ],
      "name": "tokenByIndex",
      "outputs": [
        {
          "internalType": "uint256",
          "name": "",
          "type": "uint256"
        }
      ],
      "stateMutability": "view",
      "type": "function"
    },
    {
      "inputs": [
        {
          "internalType": "address",
          "name": "owner",
          "type": "address"
        },
        {
          "internalType": "uint256",
          "name": "index",
          "type": "uint256"
        }
      ],
      "name": "tokenOfOwnerByIndex",
      "outputs": [
        {
          "internalType": "uint256",
          "name": "",
          "type": "uint256"
        }
      ],
      "stateMutability": "view",
      "type": "function"
    },
    {
      "inputs": [
        {
          "internalType": "uint256",
          "name": "tokenId",
          "type": "uint256"
        }
      ],
      "name": "tokenURI",
      "outputs": [
        {
          "internalType": "string",
          "name": "",
          "type": "string"
        }
      ],
      "stateMutability": "view",
      "type": "function"
    },
    {
      "inputs": [],
      "name": "totalSupply",
      "outputs": [
        {
          "internalType": "uint256",
          "name": "",
          "type": "uint256"
        }
      ],
      "stateMutability": "view",
      "type": "function"
    },
    {
      "inputs": [
        {
          "internalType": "address",
          "name": "from",
          "type": "address"
        },
        {
          "internalType": "address",
          "name": "to",
          "type": "address"
        },
        {
          "internalType": "uint256",
          "name": "tokenId",
          "type": "uint256"
        }
      ],
      "name": "transferFrom",
      "outputs": [],
      "stateMutability": "nonpayable",
      "type": "function"
    },
    {
      "inputs": [
        {
          "internalType": "address",
          "name": "newOwner",
          "type": "address"
        }
      ],
      "name": "transferOwnership",
      "outputs": [],
      "stateMutability": "nonpayable",
      "type": "function"
    }
  ],
  "bytecode": "0x60c8600b556101006040526059608081815290620021c560a03980516200002f91600e9160209091019062000147565b5060408051808201909152600580825264173539b7b760d91b60209092019182526200005e91600f9162000147565b503480156200006c57600080fd5b5060408051808201825260088152672b30b1aa37b5b2b760c11b60208083019182528351808501909452600384526256544b60e81b908401528151919291620000b89160009162000147565b508051620000ce90600190602084019062000147565b505050620000eb620000e5620000f160201b60201c565b620000f5565b6200022a565b3390565b600a80546001600160a01b038381166001600160a01b0319831681179093556040519116919082907f8be0079c531659141344cd1fd0a4f28419497f9722a3daafe3b4186f6b6457e090600090a35050565b8280546200015590620001ed565b90600052602060002090601f016020900481019282620001795760008555620001c4565b82601f106200019457805160ff1916838001178555620001c4565b82800160010185558215620001c4579182015b82811115620001c4578251825591602001919060010190620001a7565b50620001d2929150620001d6565b5090565b5b80821115620001d25760008155600101620001d7565b600181811c908216806200020257607f821691505b602082108114156200022457634e487b7160e01b600052602260045260246000fd5b50919050565b611f8b806200023a6000396000f3fe60806040526004361061015d5760003560e01c806301ffc9a71461016257806305bf4f351461019757806306fdde03146101c7578063081812fc146101e9578063095ea7b31461022157806312065fe01461024357806318160ddd1461026057806323b872dd146102755780632f745c591461029557806332cb6b0c146102b557806342842e0e146102cb57806342966c68146102eb5780634f6ccce71461030b5780636352211e1461032b57806370a082311461034b578063715018a61461036b5780638704a208146103805780638d859f3e146103955780638da5cb5b146103b057806395d89b41146103c55780639abc8320146103da578063a0bcfc7f146103ef578063a14481941461040f578063a22cb46514610422578063b7365f1f14610442578063b88d4fde14610472578063c668286214610492578063c87b56dd146104a7578063e985e9c5146104c7578063f2fde38b146104e7575b600080fd5b34801561016e57600080fd5b5061018261017d366004611b4b565b610507565b60405190151581526020015b60405180910390f35b3480156101a357600080fd5b506101826101b23660046119e0565b600d6020526000908152604090205460ff1681565b3480156101d357600080fd5b506101dc610518565b60405161018e9190611d1c565b3480156101f557600080fd5b50610209610204366004611bcd565b6105aa565b6040516001600160a01b03909116815260200161018e565b34801561022d57600080fd5b5061024161023c366004611b21565b6105d1565b005b34801561024f57600080fd5b50475b60405190815260200161018e565b34801561026c57600080fd5b50600854610252565b34801561028157600080fd5b50610241610290366004611a2e565b6106ec565b3480156102a157600080fd5b506102526102b0366004611b21565b61071d565b3480156102c157600080fd5b5061025261025881565b3480156102d757600080fd5b506102416102e6366004611a2e565b610730565b3480156102f757600080fd5b50610241610306366004611bcd565b61074b565b34801561031757600080fd5b50610252610326366004611bcd565b6107c9565b34801561033757600080fd5b50610209610346366004611bcd565b61085c565b34801561035757600080fd5b506102526103663660046119e0565b610891565b34801561037757600080fd5b50610241610917565b34801561038c57600080fd5b50610252600581565b3480156103a157600080fd5b5061025266470de4df82000081565b3480156103bc57600080fd5b5061020961092b565b3480156103d157600080fd5b506101dc61093a565b3480156103e657600080fd5b506101dc610949565b3480156103fb57600080fd5b5061024161040a366004611b85565b6109d7565b61024161041d366004611b21565b610a6e565b34801561042e57600080fd5b5061024161043d366004611ae5565b610adf565b34801561044e57600080fd5b5061018261045d366004611bcd565b600c6020526000908152604090205460ff1681565b34801561047e57600080fd5b5061024161048d366004611a6a565b610aea565b34801561049e57600080fd5b506101dc610b22565b3480156104b357600080fd5b506101dc6104c2366004611bcd565b610b2f565b3480156104d357600080fd5b506101826104e23660046119fb565b610bd3565b3480156104f357600080fd5b506102416105023660046119e0565b610c01565b600061051282610c77565b92915050565b60606000805461052790611e70565b80601f016020809104026020016040519081016040528092919081815260200182805461055390611e70565b80156105a05780601f10610575576101008083540402835291602001916105a0565b820191906000526020600020905b81548152906001019060200180831161058357829003601f168201915b5050505050905090565b60006105b582610c9c565b506000908152600460205260409020546001600160a01b031690565b60006105dc8261085c565b9050806001600160a01b0316836001600160a01b0316141561064f5760405162461bcd60e51b815260206004820152602160248201527f4552433732313a20617070726f76616c20746f2063757272656e74206f776e656044820152603960f91b60648201526084015b60405180910390fd5b336001600160a01b038216148061066b575061066b8133610bd3565b6106dd5760405162461bcd60e51b815260206004820152603e60248201527f4552433732313a20617070726f76652063616c6c6572206973206e6f7420746f60448201527f6b656e206f776e6572206e6f7220617070726f76656420666f7220616c6c00006064820152608401610646565b6106e78383610cc1565b505050565b6106f63382610d2f565b6107125760405162461bcd60e51b815260040161064690611db3565b6106e7838383610d8e565b60006107298383610f23565b9392505050565b6106e783838360405180602001604052806000815250610aea565b61075361092b565b6001600160a01b0316336001600160a01b0316146107bd5760405162461bcd60e51b815260206004820152602160248201527f6f6e6c7920636f6e7472616374206f776e65722063616e206275726e206e66746044820152607360f81b6064820152608401610646565b6107c681610fb9565b50565b60006107d460085490565b82106108375760405162461bcd60e51b815260206004820152602c60248201527f455243373231456e756d657261626c653a20676c6f62616c20696e646578206f60448201526b7574206f6620626f756e647360a01b6064820152608401610646565b6008828154811061084a5761084a611f1c565b90600052602060002001549050919050565b6000818152600260205260408120546001600160a01b0316806105125760405162461bcd60e51b815260040161064690611d81565b60006001600160a01b0382166108fb5760405162461bcd60e51b815260206004820152602960248201527f4552433732313a2061646472657373207a65726f206973206e6f7420612076616044820152683634b21037bbb732b960b91b6064820152608401610646565b506001600160a01b031660009081526003602052604090205490565b61091f61104e565b61092960006110ad565b565b600a546001600160a01b031690565b60606001805461052790611e70565b600e805461095690611e70565b80601f016020809104026020016040519081016040528092919081815260200182805461098290611e70565b80156109cf5780601f106109a4576101008083540402835291602001916109cf565b820191906000526020600020905b8154815290600101906020018083116109b257829003601f168201915b505050505081565b6109df61092b565b6001600160a01b0316336001600160a01b031614610a575760405162461bcd60e51b815260206004820152602f60248201527f50726f6a204e66743a204f6e6c792061646d696e2063616e206578656375746560448201526e103a3434b990333ab731ba34b7b71760891b6064820152608401610646565b8051610a6a90600e9060208401906118b6565b5050565b610a7661104e565b6000818152600c602052604090205460ff1615610ad55760405162461bcd60e51b815260206004820181905260248201527f546f6b656e2049442068617320616c7265616479206265656e206d696e7465646044820152606401610646565b610a6a82826110ff565b610a6a338383611119565b610af43383610d2f565b610b105760405162461bcd60e51b815260040161064690611db3565b610b1c848484846111e4565b50505050565b600f805461095690611e70565b6060610b3a82611217565b610b9e5760405162461bcd60e51b815260206004820152602f60248201527f4552433732314d657461646174613a2055524920717565727920666f72206e6f60448201526e3732bc34b9ba32b73a103a37b5b2b760891b6064820152608401610646565b600e610ba983611234565b600f604051602001610bbd93929190611cac565b6040516020818303038152906040529050919050565b6001600160a01b03918216600090815260056020908152604080832093909416825291909152205460ff1690565b610c0961104e565b6001600160a01b038116610c6e5760405162461bcd60e51b815260206004820152602660248201527f4f776e61626c653a206e6577206f776e657220697320746865207a65726f206160448201526564647265737360d01b6064820152608401610646565b6107c6816110ad565b60006001600160e01b0319821663780e9d6360e01b1480610512575061051282611331565b610ca581611217565b6107c65760405162461bcd60e51b815260040161064690611d81565b600081815260046020526040902080546001600160a01b0319166001600160a01b0384169081179091558190610cf68261085c565b6001600160a01b03167f8c5be1e5ebec7d5bd14f71427d1e84f3dd0314c0f7b2291e5b200ac8c7c3b92560405160405180910390a45050565b600080610d3b8361085c565b9050806001600160a01b0316846001600160a01b03161480610d625750610d628185610bd3565b80610d865750836001600160a01b0316610d7b846105aa565b6001600160a01b0316145b949350505050565b826001600160a01b0316610da18261085c565b6001600160a01b031614610e055760405162461bcd60e51b815260206004820152602560248201527f4552433732313a207472616e736665722066726f6d20696e636f72726563742060448201526437bbb732b960d91b6064820152608401610646565b6001600160a01b038216610e675760405162461bcd60e51b8152602060048201526024808201527f4552433732313a207472616e7366657220746f20746865207a65726f206164646044820152637265737360e01b6064820152608401610646565b610e72838383611381565b610e7d600082610cc1565b6001600160a01b0383166000908152600360205260408120805460019290610ea6908490611e2d565b90915550506001600160a01b0382166000908152600360205260408120805460019290610ed4908490611e01565b909155505060008181526002602052604080822080546001600160a01b0319166001600160a01b038681169182179092559151849391871691600080516020611f5f83398151915291a4505050565b6000610f2e83610891565b8210610f905760405162461bcd60e51b815260206004820152602b60248201527f455243373231456e756d657261626c653a206f776e657220696e646578206f7560448201526a74206f6620626f756e647360a81b6064820152608401610646565b506001600160a01b03919091166000908152600660209081526040808320938352929052205490565b6000610fc48261085c565b9050610fd281600084611381565b610fdd600083610cc1565b6001600160a01b0381166000908152600360205260408120805460019290611006908490611e2d565b909155505060008281526002602052604080822080546001600160a01b0319169055518391906001600160a01b03841690600080516020611f5f833981519152908390a45050565b3361105761092b565b6001600160a01b0316146109295760405162461bcd60e51b815260206004820181905260248201527f4f776e61626c653a2063616c6c6572206973206e6f7420746865206f776e65726044820152606401610646565b600a80546001600160a01b038381166001600160a01b0319831681179093556040519116919082907f8be0079c531659141344cd1fd0a4f28419497f9722a3daafe3b4186f6b6457e090600090a35050565b610a6a828260405180602001604052806000815250611402565b816001600160a01b0316836001600160a01b031614156111775760405162461bcd60e51b815260206004820152601960248201527822a9219b99189d1030b8383937bb32903a379031b0b63632b960391b6044820152606401610646565b6001600160a01b03838116600081815260056020908152604080832094871680845294825291829020805460ff191686151590811790915591519182527f17307eab39ab6107e8899845ad3d59bd9653f200f220920489ca2b5937696c31910160405180910390a3505050565b6111ef848484610d8e565b6111fb84848484611435565b610b1c5760405162461bcd60e51b815260040161064690611d2f565b6000908152600260205260409020546001600160a01b0316151590565b6060816112585750506040805180820190915260018152600360fc1b602082015290565b8160005b8115611282578061126c81611eab565b915061127b9050600a83611e19565b915061125c565b6000816001600160401b0381111561129c5761129c611f32565b6040519080825280601f01601f1916602001820160405280156112c6576020820181803683370190505b5090505b8415610d86576112db600183611e2d565b91506112e8600a86611ec6565b6112f3906030611e01565b60f81b81838151811061130857611308611f1c565b60200101906001600160f81b031916908160001a90535061132a600a86611e19565b94506112ca565b60006001600160e01b031982166380ac58cd60e01b148061136257506001600160e01b03198216635b5e139f60e01b145b8061051257506301ffc9a760e01b6001600160e01b0319831614610512565b61138961092b565b6001600160a01b0316336001600160a01b0316146113f75760405162461bcd60e51b815260206004820152602560248201527f6f6e6c7920636f6e7472616374206f776e65722063616e207472616e73666572604482015264206e66747360d81b6064820152608401610646565b6106e7838383611542565b61140c83836115fa565b6114196000848484611435565b6106e75760405162461bcd60e51b815260040161064690611d2f565b60006001600160a01b0384163b1561153757604051630a85bd0160e11b81526001600160a01b0385169063150b7a0290611479903390899088908890600401611cdf565b602060405180830381600087803b15801561149357600080fd5b505af19250505080156114c3575060408051601f3d908101601f191682019092526114c091810190611b68565b60015b61151d573d8080156114f1576040519150601f19603f3d011682016040523d82523d6000602084013e6114f6565b606091505b5080516115155760405162461bcd60e51b815260040161064690611d2f565b805181602001fd5b6001600160e01b031916630a85bd0160e11b149050610d86565b506001949350505050565b6001600160a01b03831661159d5761159881600880546000838152600960205260408120829055600182018355919091527ff3f7a9fe364faab93b216da50a3214154f22a0a2b415b23a84c8169e8b636ee30155565b6115c0565b816001600160a01b0316836001600160a01b0316146115c0576115c08382611726565b6001600160a01b0382166115d7576106e7816117c3565b826001600160a01b0316826001600160a01b0316146106e7576106e78282611872565b6001600160a01b0382166116505760405162461bcd60e51b815260206004820181905260248201527f4552433732313a206d696e7420746f20746865207a65726f20616464726573736044820152606401610646565b61165981611217565b156116a55760405162461bcd60e51b815260206004820152601c60248201527b115490cdcc8c4e881d1bdad95b88185b1c9958591e481b5a5b9d195960221b6044820152606401610646565b6116b160008383611381565b6001600160a01b03821660009081526003602052604081208054600192906116da908490611e01565b909155505060008181526002602052604080822080546001600160a01b0319166001600160a01b0386169081179091559051839290600080516020611f5f833981519152908290a45050565b6000600161173384610891565b61173d9190611e2d565b600083815260076020526040902054909150808214611790576001600160a01b03841660009081526006602090815260408083208584528252808320548484528184208190558352600790915290208190555b5060009182526007602090815260408084208490556001600160a01b039094168352600681528383209183525290812055565b6008546000906117d590600190611e2d565b600083815260096020526040812054600880549394509092849081106117fd576117fd611f1c565b90600052602060002001549050806008838154811061181e5761181e611f1c565b600091825260208083209091019290925582815260099091526040808220849055858252812055600880548061185657611856611f06565b6001900381819060005260206000200160009055905550505050565b600061187d83610891565b6001600160a01b039093166000908152600660209081526040808320868452825280832085905593825260079052919091209190915550565b8280546118c290611e70565b90600052602060002090601f0160209004810192826118e4576000855561192a565b82601f106118fd57805160ff191683800117855561192a565b8280016001018555821561192a579182015b8281111561192a57825182559160200191906001019061190f565b5061193692915061193a565b5090565b5b80821115611936576000815560010161193b565b60006001600160401b038084111561196957611969611f32565b604051601f8501601f19908116603f0116810190828211818310171561199157611991611f32565b816040528093508581528686860111156119aa57600080fd5b858560208301376000602087830101525050509392505050565b80356001600160a01b03811681146119db57600080fd5b919050565b6000602082840312156119f257600080fd5b610729826119c4565b60008060408385031215611a0e57600080fd5b611a17836119c4565b9150611a25602084016119c4565b90509250929050565b600080600060608486031215611a4357600080fd5b611a4c846119c4565b9250611a5a602085016119c4565b9150604084013590509250925092565b60008060008060808587031215611a8057600080fd5b611a89856119c4565b9350611a97602086016119c4565b92506040850135915060608501356001600160401b03811115611ab957600080fd5b8501601f81018713611aca57600080fd5b611ad98782356020840161194f565b91505092959194509250565b60008060408385031215611af857600080fd5b611b01836119c4565b915060208301358015158114611b1657600080fd5b809150509250929050565b60008060408385031215611b3457600080fd5b611b3d836119c4565b946020939093013593505050565b600060208284031215611b5d57600080fd5b813561072981611f48565b600060208284031215611b7a57600080fd5b815161072981611f48565b600060208284031215611b9757600080fd5b81356001600160401b03811115611bad57600080fd5b8201601f81018413611bbe57600080fd5b610d868482356020840161194f565b600060208284031215611bdf57600080fd5b5035919050565b60008151808452611bfe816020860160208601611e44565b601f01601f19169290920160200192915050565b8054600090600181811c9080831680611c2c57607f831692505b6020808410821415611c4e57634e487b7160e01b600052602260045260246000fd5b818015611c625760018114611c7357611ca0565b60ff19861689528489019650611ca0565b60008881526020902060005b86811015611c985781548b820152908501908301611c7f565b505084890196505b50505050505092915050565b6000611cb88286611c12565b8451611cc8818360208901611e44565b611cd481830186611c12565b979650505050505050565b6001600160a01b0385811682528416602082015260408101839052608060608201819052600090611d1290830184611be6565b9695505050505050565b6020815260006107296020830184611be6565b60208082526032908201527f4552433732313a207472616e7366657220746f206e6f6e20455243373231526560408201527131b2b4bb32b91034b6b83632b6b2b73a32b960711b606082015260800190565b602080825260189082015277115490cdcc8c4e881a5b9d985b1a59081d1bdad95b88125160421b604082015260600190565b6020808252602e908201527f4552433732313a2063616c6c6572206973206e6f7420746f6b656e206f776e6560408201526d1c881b9bdc88185c1c1c9bdd995960921b606082015260800190565b60008219821115611e1457611e14611eda565b500190565b600082611e2857611e28611ef0565b500490565b600082821015611e3f57611e3f611eda565b500390565b60005b83811015611e5f578181015183820152602001611e47565b83811115610b1c5750506000910152565b600181811c90821680611e8457607f821691505b60208210811415611ea557634e487b7160e01b600052602260045260246000fd5b50919050565b6000600019821415611ebf57611ebf611eda565b5060010190565b600082611ed557611ed5611ef0565b500690565b634e487b7160e01b600052601160045260246000fd5b634e487b7160e01b600052601260045260246000fd5b634e487b7160e01b600052603160045260246000fd5b634e487b7160e01b600052603260045260246000fd5b634e487b7160e01b600052604160045260246000fd5b6001600160e01b0319811681146107c657600080fdfeddf252ad1be2c89b69c2b068fc378daa952ba7f163c4a11628f55a4df523b3efa164736f6c6343000806000a68747470733a2f2f6e667473746f726167652e6c696e6b2f697066732f62616679626569686766713574353771616f77326d366f6e7436617472776d64356a337965706632696572676c633572636a3333726f73723666712f",
  "linkReferences": {},
  "deployedLinkReferences": {}
}